{
	"ForAndWhile.sol": {
		"ForAndWhileLoops": {
			"abi": [
				{
					"inputs": [],
					"name": "loops",
					"outputs": [],
					"stateMutability": "pure",
					"type": "function"
				}
			],
			"devdoc": {
				"kind": "dev",
				"methods": {},
				"version": 1
			},
			"evm": {
				"assembly": "    /* \"ForAndWhile.sol\":56:384  contract ForAndWhileLoops{... */\n  mstore(0x40, 0x80)\n  callvalue\n  dup1\n  iszero\n  tag_1\n  jumpi\n  0x00\n  dup1\n  revert\ntag_1:\n  pop\n  dataSize(sub_0)\n  dup1\n  dataOffset(sub_0)\n  0x00\n  codecopy\n  0x00\n  return\nstop\n\nsub_0: assembly {\n        /* \"ForAndWhile.sol\":56:384  contract ForAndWhileLoops{... */\n      mstore(0x40, 0x80)\n      callvalue\n      dup1\n      iszero\n      tag_1\n      jumpi\n      0x00\n      dup1\n      revert\n    tag_1:\n      pop\n      jumpi(tag_2, lt(calldatasize, 0x04))\n      shr(0xe0, calldataload(0x00))\n      dup1\n      0x938b9ceb\n      eq\n      tag_3\n      jumpi\n    tag_2:\n      0x00\n      dup1\n      revert\n        /* \"ForAndWhile.sol\":87:382  function loops() external pure{... */\n    tag_3:\n      tag_4\n      tag_5\n      jump\t// in\n    tag_4:\n      stop\n    tag_5:\n        /* \"ForAndWhile.sol\":132:138  uint i */\n      0x00\n        /* \"ForAndWhile.sol\":127:287  for (uint i=0; i<=10; i++){... */\n    tag_7:\n        /* \"ForAndWhile.sol\":145:147  10 */\n      0x0a\n        /* \"ForAndWhile.sol\":142:143  i */\n      dup2\n        /* \"ForAndWhile.sol\":142:147  i<=10 */\n      gt\n        /* \"ForAndWhile.sol\":127:287  for (uint i=0; i<=10; i++){... */\n      tag_8\n      jumpi\n        /* \"ForAndWhile.sol\":174:175  3 */\n      0x03\n        /* \"ForAndWhile.sol\":171:172  i */\n      dup2\n        /* \"ForAndWhile.sol\":171:175  i==3 */\n      eq\n        /* \"ForAndWhile.sol\":167:217  if (i==3){... */\n      iszero\n      tag_10\n      jumpi\n        /* \"ForAndWhile.sol\":194:202  continue */\n      jump(tag_9)\n        /* \"ForAndWhile.sol\":167:217  if (i==3){... */\n    tag_10:\n        /* \"ForAndWhile.sol\":237:238  5 */\n      0x05\n        /* \"ForAndWhile.sol\":234:235  i */\n      dup2\n        /* \"ForAndWhile.sol\":234:238  i==5 */\n      eq\n        /* \"ForAndWhile.sol\":230:277  if (i==5){... */\n      iszero\n      tag_11\n      jumpi\n        /* \"ForAndWhile.sol\":257:262  break */\n      jump(tag_8)\n        /* \"ForAndWhile.sol\":230:277  if (i==5){... */\n    tag_11:\n        /* \"ForAndWhile.sol\":127:287  for (uint i=0; i<=10; i++){... */\n    tag_9:\n        /* \"ForAndWhile.sol\":149:152  i++ */\n      dup1\n      dup1\n      tag_12\n      swap1\n      tag_13\n      jump\t// in\n    tag_12:\n      swap2\n      pop\n      pop\n        /* \"ForAndWhile.sol\":127:287  for (uint i=0; i<=10; i++){... */\n      jump(tag_7)\n    tag_8:\n      pop\n        /* \"ForAndWhile.sol\":296:302  uint j */\n      0x00\n        /* \"ForAndWhile.sol\":316:376  while (j<=10){... */\n    tag_14:\n        /* \"ForAndWhile.sol\":326:328  10 */\n      0x0a\n        /* \"ForAndWhile.sol\":323:324  j */\n      dup2\n        /* \"ForAndWhile.sol\":323:328  j<=10 */\n      gt\n        /* \"ForAndWhile.sol\":316:376  while (j<=10){... */\n      tag_15\n      jumpi\n        /* \"ForAndWhile.sol\":362:365  j++ */\n      dup1\n      dup1\n      tag_16\n      swap1\n      tag_13\n      jump\t// in\n    tag_16:\n      swap2\n      pop\n      pop\n        /* \"ForAndWhile.sol\":316:376  while (j<=10){... */\n      jump(tag_14)\n    tag_15:\n        /* \"ForAndWhile.sol\":117:382  {... */\n      pop\n        /* \"ForAndWhile.sol\":87:382  function loops() external pure{... */\n      jump\t// out\n        /* \"#utility.yul\":7:84   */\n    tag_18:\n        /* \"#utility.yul\":44:51   */\n      0x00\n        /* \"#utility.yul\":73:78   */\n      dup2\n        /* \"#utility.yul\":62:78   */\n      swap1\n      pop\n        /* \"#utility.yul\":7:84   */\n      swap2\n      swap1\n      pop\n      jump\t// out\n        /* \"#utility.yul\":90:323   */\n    tag_13:\n        /* \"#utility.yul\":129:132   */\n      0x00\n        /* \"#utility.yul\":152:176   */\n      tag_21\n        /* \"#utility.yul\":170:175   */\n      dup3\n        /* \"#utility.yul\":152:176   */\n      tag_18\n      jump\t// in\n    tag_21:\n        /* \"#utility.yul\":143:176   */\n      swap2\n      pop\n        /* \"#utility.yul\":198:264   */\n      0xffffffffffffffffffffffffffffffffffffffffffffffffffffffffffffffff\n        /* \"#utility.yul\":191:196   */\n      dup3\n        /* \"#utility.yul\":188:265   */\n      eq\n        /* \"#utility.yul\":185:288   */\n      iszero\n      tag_22\n      jumpi\n        /* \"#utility.yul\":268:286   */\n      tag_23\n      tag_24\n      jump\t// in\n    tag_23:\n        /* \"#utility.yul\":185:288   */\n    tag_22:\n        /* \"#utility.yul\":315:316   */\n      0x01\n        /* \"#utility.yul\":308:313   */\n      dup3\n        /* \"#utility.yul\":304:317   */\n      add\n        /* \"#utility.yul\":297:317   */\n      swap1\n      pop\n        /* \"#utility.yul\":90:323   */\n      swap2\n      swap1\n      pop\n      jump\t// out\n        /* \"#utility.yul\":329:509   */\n    tag_24:\n        /* \"#utility.yul\":377:454   */\n      0x4e487b7100000000000000000000000000000000000000000000000000000000\n        /* \"#utility.yul\":374:375   */\n      0x00\n        /* \"#utility.yul\":367:455   */\n      mstore\n        /* \"#utility.yul\":474:478   */\n      0x11\n        /* \"#utility.yul\":471:472   */\n      0x04\n        /* \"#utility.yul\":464:479   */\n      mstore\n        /* \"#utility.yul\":498:502   */\n      0x24\n        /* \"#utility.yul\":495:496   */\n      0x00\n        /* \"#utility.yul\":488:503   */\n      revert\n\n    auxdata: 0xa26469706673582212201364f81a7cf4f59050e9e4a87e6e1a6a7c79607f68a736c37ed922c222d836df64736f6c63430008070033\n}\n",
				"bytecode": {
					"linkReferences": {},
					"object": "608060405234801561001057600080fd5b5061014f806100206000396000f3fe608060405234801561001057600080fd5b506004361061002b5760003560e01c8063938b9ceb14610030575b600080fd5b61003861003a565b005b60005b600a811161007557600381141561005357610062565b600581141561006157610075565b5b808061006d906100a1565b91505061003d565b5060005b600a811161009457808061008c906100a1565b915050610079565b50565b6000819050919050565b60006100ac82610097565b91507fffffffffffffffffffffffffffffffffffffffffffffffffffffffffffffffff8214156100df576100de6100ea565b5b600182019050919050565b7f4e487b7100000000000000000000000000000000000000000000000000000000600052601160045260246000fdfea26469706673582212201364f81a7cf4f59050e9e4a87e6e1a6a7c79607f68a736c37ed922c222d836df64736f6c63430008070033",
					"opcodes": "PUSH1 0x80 PUSH1 0x40 MSTORE CALLVALUE DUP1 ISZERO PUSH2 0x10 JUMPI PUSH1 0x0 DUP1 REVERT JUMPDEST POP PUSH2 0x14F DUP1 PUSH2 0x20 PUSH1 0x0 CODECOPY PUSH1 0x0 RETURN INVALID PUSH1 0x80 PUSH1 0x40 MSTORE CALLVALUE DUP1 ISZERO PUSH2 0x10 JUMPI PUSH1 0x0 DUP1 REVERT JUMPDEST POP PUSH1 0x4 CALLDATASIZE LT PUSH2 0x2B JUMPI PUSH1 0x0 CALLDATALOAD PUSH1 0xE0 SHR DUP1 PUSH4 0x938B9CEB EQ PUSH2 0x30 JUMPI JUMPDEST PUSH1 0x0 DUP1 REVERT JUMPDEST PUSH2 0x38 PUSH2 0x3A JUMP JUMPDEST STOP JUMPDEST PUSH1 0x0 JUMPDEST PUSH1 0xA DUP2 GT PUSH2 0x75 JUMPI PUSH1 0x3 DUP2 EQ ISZERO PUSH2 0x53 JUMPI PUSH2 0x62 JUMP JUMPDEST PUSH1 0x5 DUP2 EQ ISZERO PUSH2 0x61 JUMPI PUSH2 0x75 JUMP JUMPDEST JUMPDEST DUP1 DUP1 PUSH2 0x6D SWAP1 PUSH2 0xA1 JUMP JUMPDEST SWAP2 POP POP PUSH2 0x3D JUMP JUMPDEST POP PUSH1 0x0 JUMPDEST PUSH1 0xA DUP2 GT PUSH2 0x94 JUMPI DUP1 DUP1 PUSH2 0x8C SWAP1 PUSH2 0xA1 JUMP JUMPDEST SWAP2 POP POP PUSH2 0x79 JUMP JUMPDEST POP JUMP JUMPDEST PUSH1 0x0 DUP2 SWAP1 POP SWAP2 SWAP1 POP JUMP JUMPDEST PUSH1 0x0 PUSH2 0xAC DUP3 PUSH2 0x97 JUMP JUMPDEST SWAP2 POP PUSH32 0xFFFFFFFFFFFFFFFFFFFFFFFFFFFFFFFFFFFFFFFFFFFFFFFFFFFFFFFFFFFFFFFF DUP3 EQ ISZERO PUSH2 0xDF JUMPI PUSH2 0xDE PUSH2 0xEA JUMP JUMPDEST JUMPDEST PUSH1 0x1 DUP3 ADD SWAP1 POP SWAP2 SWAP1 POP JUMP JUMPDEST PUSH32 0x4E487B7100000000000000000000000000000000000000000000000000000000 PUSH1 0x0 MSTORE PUSH1 0x11 PUSH1 0x4 MSTORE PUSH1 0x24 PUSH1 0x0 REVERT INVALID LOG2 PUSH5 0x6970667358 0x22 SLT KECCAK256 SGT PUSH5 0xF81A7CF4F5 SWAP1 POP 0xE9 0xE4 0xA8 PUSH31 0x6E1A6A7C79607F68A736C37ED922C222D836DF64736F6C6343000807003300 "
				},
				"gasEstimates": {
					"creation": {
						"codeDepositCost": "67000",
						"executionCost": "117",
						"totalCost": "67117"
					},
					"external": {
						"loops()": "infinite"
					}
				},
				"methodIdentifiers": {
					"loops()": "938b9ceb"
				}
			},
			"storageLayout": {
				"storage": [],
				"types": null
			},
			"userdoc": {
				"kind": "user",
				"methods": {},
				"version": 1
			}
		}
	}
}